:1000000080311A280000203085000D30840000085F
:10001000031918280130F800F701F70B0D28F80B29
:100020000C284A30F700F70B13281628800B0A28F3
:1000300080315E2823008C018D0122009201910104
:100040009401930100306600FF3065003F302000CE
:10005000A1000630A2005B30A3004F30A400663040
:10006000A5006D30A6007D30A7000730A8007F30C6
:10007000A9006F30AA00AB0121008D013F302200A2
:100080008D0020000C1C6328AB012B08093C031CCD
:10009000622801302B078400203085000318850A70
:1000A0000008AC0021008D0120002C0822008D00EA
:1000B00002302000AC009630AD000328AC0B5B286A
:1000C000AB0A4528692821008D013F3022008D00B0
:0600D0002000422863003D
:020000040001F9
:04000E00C139FF1ED7
:00000001FF
;PIC16F1827
;CRC=59F7  CREATED="25-mar.-21 19:37"
